{
  "address": "0xd9B1fa6218Ed0354fCDe0E53508F4d65AE19efEE",
  "abi": [
    {
      "inputs": [
        {
          "internalType": "contract IERC1155",
          "name": "_nftAddress",
          "type": "address"
        },
        {
          "internalType": "address",
          "name": "_signerAddress",
          "type": "address"
        }
      ],
      "stateMutability": "nonpayable",
      "type": "constructor"
    },
    {
      "inputs": [],
      "name": "AccessControlBadConfirmation",
      "type": "error"
    },
    {
      "inputs": [
        {
          "internalType": "address",
          "name": "account",
          "type": "address"
        },
        {
          "internalType": "bytes32",
          "name": "neededRole",
          "type": "bytes32"
        }
      ],
      "name": "AccessControlUnauthorizedAccount",
      "type": "error"
    },
    {
      "inputs": [],
      "name": "ECDSAInvalidSignature",
      "type": "error"
    },
    {
      "inputs": [
        {
          "internalType": "uint256",
          "name": "length",
          "type": "uint256"
        }
      ],
      "name": "ECDSAInvalidSignatureLength",
      "type": "error"
    },
    {
      "inputs": [
        {
          "internalType": "bytes32",
          "name": "s",
          "type": "bytes32"
        }
      ],
      "name": "ECDSAInvalidSignatureS",
      "type": "error"
    },
    {
      "inputs": [],
      "name": "InvalidShortString",
      "type": "error"
    },
    {
      "inputs": [
        {
          "internalType": "string",
          "name": "str",
          "type": "string"
        }
      ],
      "name": "StringTooLong",
      "type": "error"
    },
    {
      "anonymous": false,
      "inputs": [],
      "name": "EIP712DomainChanged",
      "type": "event"
    },
    {
      "anonymous": false,
      "inputs": [
        {
          "indexed": true,
          "internalType": "bytes32",
          "name": "role",
          "type": "bytes32"
        },
        {
          "indexed": true,
          "internalType": "bytes32",
          "name": "previousAdminRole",
          "type": "bytes32"
        },
        {
          "indexed": true,
          "internalType": "bytes32",
          "name": "newAdminRole",
          "type": "bytes32"
        }
      ],
      "name": "RoleAdminChanged",
      "type": "event"
    },
    {
      "anonymous": false,
      "inputs": [
        {
          "indexed": true,
          "internalType": "bytes32",
          "name": "role",
          "type": "bytes32"
        },
        {
          "indexed": true,
          "internalType": "address",
          "name": "account",
          "type": "address"
        },
        {
          "indexed": true,
          "internalType": "address",
          "name": "sender",
          "type": "address"
        }
      ],
      "name": "RoleGranted",
      "type": "event"
    },
    {
      "anonymous": false,
      "inputs": [
        {
          "indexed": true,
          "internalType": "bytes32",
          "name": "role",
          "type": "bytes32"
        },
        {
          "indexed": true,
          "internalType": "address",
          "name": "account",
          "type": "address"
        },
        {
          "indexed": true,
          "internalType": "address",
          "name": "sender",
          "type": "address"
        }
      ],
      "name": "RoleRevoked",
      "type": "event"
    },
    {
      "inputs": [],
      "name": "DEFAULT_ADMIN_ROLE",
      "outputs": [
        {
          "internalType": "bytes32",
          "name": "",
          "type": "bytes32"
        }
      ],
      "stateMutability": "view",
      "type": "function"
    },
    {
      "inputs": [],
      "name": "MINTER_TYPEHASH",
      "outputs": [
        {
          "internalType": "bytes32",
          "name": "",
          "type": "bytes32"
        }
      ],
      "stateMutability": "view",
      "type": "function"
    },
    {
      "inputs": [],
      "name": "eip712Domain",
      "outputs": [
        {
          "internalType": "bytes1",
          "name": "fields",
          "type": "bytes1"
        },
        {
          "internalType": "string",
          "name": "name",
          "type": "string"
        },
        {
          "internalType": "string",
          "name": "version",
          "type": "string"
        },
        {
          "internalType": "uint256",
          "name": "chainId",
          "type": "uint256"
        },
        {
          "internalType": "address",
          "name": "verifyingContract",
          "type": "address"
        },
        {
          "internalType": "bytes32",
          "name": "salt",
          "type": "bytes32"
        },
        {
          "internalType": "uint256[]",
          "name": "extensions",
          "type": "uint256[]"
        }
      ],
      "stateMutability": "view",
      "type": "function"
    },
    {
      "inputs": [],
      "name": "erc1155",
      "outputs": [
        {
          "internalType": "contract IERC1155",
          "name": "",
          "type": "address"
        }
      ],
      "stateMutability": "view",
      "type": "function"
    },
    {
      "inputs": [
        {
          "internalType": "bytes32",
          "name": "role",
          "type": "bytes32"
        }
      ],
      "name": "getRoleAdmin",
      "outputs": [
        {
          "internalType": "bytes32",
          "name": "",
          "type": "bytes32"
        }
      ],
      "stateMutability": "view",
      "type": "function"
    },
    {
      "inputs": [
        {
          "internalType": "bytes32",
          "name": "role",
          "type": "bytes32"
        },
        {
          "internalType": "address",
          "name": "account",
          "type": "address"
        }
      ],
      "name": "grantRole",
      "outputs": [],
      "stateMutability": "nonpayable",
      "type": "function"
    },
    {
      "inputs": [
        {
          "internalType": "bytes32",
          "name": "role",
          "type": "bytes32"
        },
        {
          "internalType": "address",
          "name": "account",
          "type": "address"
        }
      ],
      "name": "hasRole",
      "outputs": [
        {
          "internalType": "bool",
          "name": "",
          "type": "bool"
        }
      ],
      "stateMutability": "view",
      "type": "function"
    },
    {
      "inputs": [
        {
          "internalType": "bytes",
          "name": "_sig",
          "type": "bytes"
        },
        {
          "internalType": "uint256",
          "name": "_tokenId",
          "type": "uint256"
        },
        {
          "internalType": "uint256",
          "name": "_nonce",
          "type": "uint256"
        }
      ],
      "name": "mint",
      "outputs": [],
      "stateMutability": "nonpayable",
      "type": "function"
    },
    {
      "inputs": [],
      "name": "mintStarted",
      "outputs": [
        {
          "internalType": "bool",
          "name": "",
          "type": "bool"
        }
      ],
      "stateMutability": "view",
      "type": "function"
    },
    {
      "inputs": [
        {
          "internalType": "bytes32",
          "name": "role",
          "type": "bytes32"
        },
        {
          "internalType": "address",
          "name": "callerConfirmation",
          "type": "address"
        }
      ],
      "name": "renounceRole",
      "outputs": [],
      "stateMutability": "nonpayable",
      "type": "function"
    },
    {
      "inputs": [
        {
          "internalType": "bytes32",
          "name": "role",
          "type": "bytes32"
        },
        {
          "internalType": "address",
          "name": "account",
          "type": "address"
        }
      ],
      "name": "revokeRole",
      "outputs": [],
      "stateMutability": "nonpayable",
      "type": "function"
    },
    {
      "inputs": [
        {
          "internalType": "bool",
          "name": "_isStarted",
          "type": "bool"
        }
      ],
      "name": "setMintStarted",
      "outputs": [],
      "stateMutability": "nonpayable",
      "type": "function"
    },
    {
      "inputs": [
        {
          "internalType": "address",
          "name": "_signerAddress",
          "type": "address"
        }
      ],
      "name": "setSignerAddress",
      "outputs": [],
      "stateMutability": "nonpayable",
      "type": "function"
    },
    {
      "inputs": [
        {
          "internalType": "bytes32",
          "name": "",
          "type": "bytes32"
        }
      ],
      "name": "signatureUsed",
      "outputs": [
        {
          "internalType": "bool",
          "name": "",
          "type": "bool"
        }
      ],
      "stateMutability": "view",
      "type": "function"
    },
    {
      "inputs": [],
      "name": "signerAddress",
      "outputs": [
        {
          "internalType": "address",
          "name": "",
          "type": "address"
        }
      ],
      "stateMutability": "view",
      "type": "function"
    },
    {
      "inputs": [
        {
          "internalType": "bytes4",
          "name": "interfaceId",
          "type": "bytes4"
        }
      ],
      "name": "supportsInterface",
      "outputs": [
        {
          "internalType": "bool",
          "name": "",
          "type": "bool"
        }
      ],
      "stateMutability": "view",
      "type": "function"
    }
  ],
  "transactionHash": "0x932bb5dc85a9e2975eb772458d4f53ececd23f71f760df040ac6ad300335e125",
  "args": [
    "0xfCb581Bf138E5ee447E137F42E81cd75CF4c8BA8",
    "0xA6d6fEf176De9ef581809764D9C8F157f15D36c8"
  ],
  "numDeployments": 2,
  "solcInputHash": "3d2bc50a7180c6fabb7f3d3c283b496b",
  "bytecode": "0x6101606040523480156200001257600080fd5b506040516200290a3803806200290a83398181016040528101906200003891906200055f565b6040518060400160405280600d81526020017f4261636b656e644d696e746572000000000000000000000000000000000000008152506040518060400160405280600181526020017f3100000000000000000000000000000000000000000000000000000000000000815250620000ba6001836200020f60201b90919060201c565b6101208181525050620000d86002826200020f60201b90919060201c565b6101408181525050818051906020012060e08181525050808051906020012061010081815250504660a08181525050620001176200026760201b60201c565b608081815250503073ffffffffffffffffffffffffffffffffffffffff1660c08173ffffffffffffffffffffffffffffffffffffffff1681525050505080600360006101000a81548173ffffffffffffffffffffffffffffffffffffffff021916908373ffffffffffffffffffffffffffffffffffffffff16021790555081600460006101000a81548173ffffffffffffffffffffffffffffffffffffffff021916908373ffffffffffffffffffffffffffffffffffffffff1602179055506000600360146101000a81548160ff021916908315150217905550620002066000801b33620002c460201b60201c565b50505062000af6565b600060208351101562000235576200022d83620003c760201b60201c565b905062000261565b8262000247836200043460201b60201c565b600001908162000258919062000820565b5060ff60001b90505b92915050565b60007f8b73c3c69bb8fe3d512ecc4cf759cc79239f7b179b0ffacaa9a75d522b39400f60e051610100514630604051602001620002a995949392919062000944565b60405160208183030381529060405280519060200120905090565b6000620002d883836200043e60201b60201c565b620003bc57600160008085815260200190815260200160002060000160008473ffffffffffffffffffffffffffffffffffffffff1673ffffffffffffffffffffffffffffffffffffffff16815260200190815260200160002060006101000a81548160ff02191690831515021790555062000358620004a860201b60201c565b73ffffffffffffffffffffffffffffffffffffffff168273ffffffffffffffffffffffffffffffffffffffff16847f2f8788117e7eff1d82e926ec794901d17c78024a50270940304540a733656f0d60405160405180910390a460019050620003c1565b600090505b92915050565b600080829050601f815111156200041757826040517f305a27a90000000000000000000000000000000000000000000000000000000081526004016200040e919062000a30565b60405180910390fd5b805181620004259062000a86565b60001c1760001b915050919050565b6000819050919050565b600080600084815260200190815260200160002060000160008373ffffffffffffffffffffffffffffffffffffffff1673ffffffffffffffffffffffffffffffffffffffff16815260200190815260200160002060009054906101000a900460ff16905092915050565b600033905090565b600080fd5b600073ffffffffffffffffffffffffffffffffffffffff82169050919050565b6000620004e282620004b5565b9050919050565b6000620004f682620004d5565b9050919050565b6200050881620004e9565b81146200051457600080fd5b50565b6000815190506200052881620004fd565b92915050565b6200053981620004d5565b81146200054557600080fd5b50565b60008151905062000559816200052e565b92915050565b60008060408385031215620005795762000578620004b0565b5b6000620005898582860162000517565b92505060206200059c8582860162000548565b9150509250929050565b600081519050919050565b7f4e487b7100000000000000000000000000000000000000000000000000000000600052604160045260246000fd5b7f4e487b7100000000000000000000000000000000000000000000000000000000600052602260045260246000fd5b600060028204905060018216806200062857607f821691505b6020821081036200063e576200063d620005e0565b5b50919050565b60008190508160005260206000209050919050565b60006020601f8301049050919050565b600082821b905092915050565b600060088302620006a87fffffffffffffffffffffffffffffffffffffffffffffffffffffffffffffffff8262000669565b620006b4868362000669565b95508019841693508086168417925050509392505050565b6000819050919050565b6000819050919050565b600062000701620006fb620006f584620006cc565b620006d6565b620006cc565b9050919050565b6000819050919050565b6200071d83620006e0565b620007356200072c8262000708565b84845462000676565b825550505050565b600090565b6200074c6200073d565b6200075981848462000712565b505050565b5b8181101562000781576200077560008262000742565b6001810190506200075f565b5050565b601f821115620007d0576200079a8162000644565b620007a58462000659565b81016020851015620007b5578190505b620007cd620007c48562000659565b8301826200075e565b50505b505050565b600082821c905092915050565b6000620007f560001984600802620007d5565b1980831691505092915050565b6000620008108383620007e2565b9150826002028217905092915050565b6200082b82620005a6565b67ffffffffffffffff811115620008475762000846620005b1565b5b6200085382546200060f565b6200086082828562000785565b600060209050601f83116001811462000898576000841562000883578287015190505b6200088f858262000802565b865550620008ff565b601f198416620008a88662000644565b60005b82811015620008d257848901518255600182019150602085019450602081019050620008ab565b86831015620008f25784890151620008ee601f891682620007e2565b8355505b6001600288020188555050505b505050505050565b6000819050919050565b6200091c8162000907565b82525050565b6200092d81620006cc565b82525050565b6200093e81620004d5565b82525050565b600060a0820190506200095b600083018862000911565b6200096a602083018762000911565b62000979604083018662000911565b62000988606083018562000922565b62000997608083018462000933565b9695505050505050565b600082825260208201905092915050565b60005b83811015620009d2578082015181840152602081019050620009b5565b60008484015250505050565b6000601f19601f8301169050919050565b6000620009fc82620005a6565b62000a088185620009a1565b935062000a1a818560208601620009b2565b62000a2581620009de565b840191505092915050565b6000602082019050818103600083015262000a4c8184620009ef565b905092915050565b600081519050919050565b6000819050602082019050919050565b600062000a7d825162000907565b80915050919050565b600062000a938262000a54565b8262000a9f8462000a5f565b905062000aac8162000a6f565b9250602082101562000aef5762000aea7fffffffffffffffffffffffffffffffffffffffffffffffffffffffffffffffff8360200360080262000669565b831692505b5050919050565b60805160a05160c05160e051610100516101205161014051611db962000b516000396000610ce801526000610cad01526000611119015260006110f801526000610d6f01526000610dc501526000610dee0152611db96000f3fe608060405234801561001057600080fd5b50600436106101005760003560e01c806384b0196e11610097578063d547741f11610066578063d547741f1461029f578063d56022d7146102bb578063e307fb31146102d9578063fa4d280c1461030957610100565b806384b0196e1461020f57806391d1485414610233578063a217fddf14610263578063a9722cf31461028157610100565b806336568abe116100d357806336568abe1461019d5780635b7633d0146101b957806365c6df3a146101d757806370f93ede146101f357610100565b806301ffc9a714610105578063046dc16614610135578063248a9ca3146101515780632f2ff15d14610181575b600080fd5b61011f600480360381019061011a9190611383565b610327565b60405161012c91906113cb565b60405180910390f35b61014f600480360381019061014a9190611444565b6103a1565b005b61016b600480360381019061016691906114a7565b610431565b60405161017891906114e3565b60405180910390f35b61019b600480360381019061019691906114fe565b610450565b005b6101b760048036038101906101b291906114fe565b610472565b005b6101c16104ed565b6040516101ce919061154d565b60405180910390f35b6101f160048036038101906101ec9190611594565b610513565b005b61020d6004803603810190610208919061165c565b61057c565b005b61021761083b565b60405161022a9796959493929190611868565b60405180910390f35b61024d600480360381019061024891906114fe565b6108e5565b60405161025a91906113cb565b60405180910390f35b61026b61094f565b60405161027891906114e3565b60405180910390f35b610289610956565b60405161029691906113cb565b60405180910390f35b6102b960048036038101906102b491906114fe565b610969565b005b6102c361098b565b6040516102d0919061194b565b60405180910390f35b6102f360048036038101906102ee91906114a7565b6109b1565b60405161030091906113cb565b60405180910390f35b6103116109d1565b60405161031e91906114e3565b60405180910390f35b60007f7965db0b000000000000000000000000000000000000000000000000000000007bffffffffffffffffffffffffffffffffffffffffffffffffffffffff1916827bffffffffffffffffffffffffffffffffffffffffffffffffffffffff1916148061039a5750610399826109f5565b5b9050919050565b6103ae6000801b336108e5565b6103ed576040517f08c379a00000000000000000000000000000000000000000000000000000000081526004016103e4906119b2565b60405180910390fd5b80600360006101000a81548173ffffffffffffffffffffffffffffffffffffffff021916908373ffffffffffffffffffffffffffffffffffffffff16021790555050565b6000806000838152602001908152602001600020600101549050919050565b61045982610431565b61046281610a5f565b61046c8383610a73565b50505050565b61047a610b64565b73ffffffffffffffffffffffffffffffffffffffff168173ffffffffffffffffffffffffffffffffffffffff16146104de576040517f6697b23200000000000000000000000000000000000000000000000000000000815260040160405180910390fd5b6104e88282610b6c565b505050565b600360009054906101000a900473ffffffffffffffffffffffffffffffffffffffff1681565b6105206000801b336108e5565b61055f576040517f08c379a0000000000000000000000000000000000000000000000000000000008152600401610556906119b2565b60405180910390fd5b80600360146101000a81548160ff02191690831515021790555050565b8383838360007f61af6e7321eaa78280fce92e96ce028e1f8eaabd1d8aca51f62b9da78beeb4c98333846040516020016105b994939291906119d2565b60405160208183030381529060405280519060200120905060006105dc82610c5e565b90506005600082815260200190815260200160002060009054906101000a900460ff161561063f576040517f08c379a000000000000000000000000000000000000000000000000000000000815260040161063690611a63565b60405180910390fd5b60016005600083815260200190815260200160002060006101000a81548160ff02191690831515021790555060006106bb8288888080601f016020809104026020016040519081016040528093929190818152602001838380828437600081840152601f19601f82011690508083019250505050505050610c78565b90508073ffffffffffffffffffffffffffffffffffffffff16600360009054906101000a900473ffffffffffffffffffffffffffffffffffffffff1673ffffffffffffffffffffffffffffffffffffffff161461074d576040517f08c379a000000000000000000000000000000000000000000000000000000000815260040161074490611acf565b60405180910390fd5b600360149054906101000a900460ff1661079c576040517f08c379a000000000000000000000000000000000000000000000000000000000815260040161079390611b3b565b60405180910390fd5b600460009054906101000a900473ffffffffffffffffffffffffffffffffffffffff1673ffffffffffffffffffffffffffffffffffffffff1663156e29f6338b60016040518463ffffffff1660e01b81526004016107fc93929190611b96565b600060405180830381600087803b15801561081657600080fd5b505af115801561082a573d6000803e3d6000fd5b505050505050505050505050505050565b60006060806000806000606061084f610ca4565b610857610cdf565b46306000801b600067ffffffffffffffff81111561087857610877611bcd565b5b6040519080825280602002602001820160405280156108a65781602001602082028036833780820191505090505b507f0f00000000000000000000000000000000000000000000000000000000000000959493929190965096509650965096509650965090919293949596565b600080600084815260200190815260200160002060000160008373ffffffffffffffffffffffffffffffffffffffff1673ffffffffffffffffffffffffffffffffffffffff16815260200190815260200160002060009054906101000a900460ff16905092915050565b6000801b81565b600360149054906101000a900460ff1681565b61097282610431565b61097b81610a5f565b6109858383610b6c565b50505050565b600460009054906101000a900473ffffffffffffffffffffffffffffffffffffffff1681565b60056020528060005260406000206000915054906101000a900460ff1681565b7f61af6e7321eaa78280fce92e96ce028e1f8eaabd1d8aca51f62b9da78beeb4c981565b60007f01ffc9a7000000000000000000000000000000000000000000000000000000007bffffffffffffffffffffffffffffffffffffffffffffffffffffffff1916827bffffffffffffffffffffffffffffffffffffffffffffffffffffffff1916149050919050565b610a7081610a6b610b64565b610d1a565b50565b6000610a7f83836108e5565b610b5957600160008085815260200190815260200160002060000160008473ffffffffffffffffffffffffffffffffffffffff1673ffffffffffffffffffffffffffffffffffffffff16815260200190815260200160002060006101000a81548160ff021916908315150217905550610af6610b64565b73ffffffffffffffffffffffffffffffffffffffff168273ffffffffffffffffffffffffffffffffffffffff16847f2f8788117e7eff1d82e926ec794901d17c78024a50270940304540a733656f0d60405160405180910390a460019050610b5e565b600090505b92915050565b600033905090565b6000610b7883836108e5565b15610c5357600080600085815260200190815260200160002060000160008473ffffffffffffffffffffffffffffffffffffffff1673ffffffffffffffffffffffffffffffffffffffff16815260200190815260200160002060006101000a81548160ff021916908315150217905550610bf0610b64565b73ffffffffffffffffffffffffffffffffffffffff168273ffffffffffffffffffffffffffffffffffffffff16847ff6391f5c32d9c69d2a47ea670b442974b53935d1edc7fd64eb21e047a839171b60405160405180910390a460019050610c58565b600090505b92915050565b6000610c71610c6b610d6b565b83610e22565b9050919050565b600080600080610c888686610e63565b925092509250610c988282610ebf565b82935050505092915050565b6060610cda60017f000000000000000000000000000000000000000000000000000000000000000061102390919063ffffffff16565b905090565b6060610d1560027f000000000000000000000000000000000000000000000000000000000000000061102390919063ffffffff16565b905090565b610d2482826108e5565b610d675780826040517fe2517d3f000000000000000000000000000000000000000000000000000000008152600401610d5e929190611bfc565b60405180910390fd5b5050565b60007f000000000000000000000000000000000000000000000000000000000000000073ffffffffffffffffffffffffffffffffffffffff163073ffffffffffffffffffffffffffffffffffffffff16148015610de757507f000000000000000000000000000000000000000000000000000000000000000046145b15610e14577f00000000000000000000000000000000000000000000000000000000000000009050610e1f565b610e1c6110d3565b90505b90565b60006040517f190100000000000000000000000000000000000000000000000000000000000081528360028201528260228201526042812091505092915050565b60008060006041845103610ea85760008060006020870151925060408701519150606087015160001a9050610e9a88828585611169565b955095509550505050610eb8565b60006002855160001b9250925092505b9250925092565b60006003811115610ed357610ed2611c25565b5b826003811115610ee657610ee5611c25565b5b031561101f5760016003811115610f0057610eff611c25565b5b826003811115610f1357610f12611c25565b5b03610f4a576040517ff645eedf00000000000000000000000000000000000000000000000000000000815260040160405180910390fd5b60026003811115610f5e57610f5d611c25565b5b826003811115610f7157610f70611c25565b5b03610fb6578060001c6040517ffce698f7000000000000000000000000000000000000000000000000000000008152600401610fad9190611c54565b60405180910390fd5b600380811115610fc957610fc8611c25565b5b826003811115610fdc57610fdb611c25565b5b0361101e57806040517fd78bce0c00000000000000000000000000000000000000000000000000000000815260040161101591906114e3565b60405180910390fd5b5b5050565b606060ff60001b8314611040576110398361125d565b90506110cd565b81805461104c90611c9e565b80601f016020809104026020016040519081016040528092919081815260200182805461107890611c9e565b80156110c55780601f1061109a576101008083540402835291602001916110c5565b820191906000526020600020905b8154815290600101906020018083116110a857829003601f168201915b505050505090505b92915050565b60007f8b73c3c69bb8fe3d512ecc4cf759cc79239f7b179b0ffacaa9a75d522b39400f7f00000000000000000000000000000000000000000000000000000000000000007f0000000000000000000000000000000000000000000000000000000000000000463060405160200161114e959493929190611ccf565b60405160208183030381529060405280519060200120905090565b60008060007f7fffffffffffffffffffffffffffffff5d576e7357a4501ddfe92f46681b20a08460001c11156111a9576000600385925092509250611253565b6000600188888888604051600081526020016040526040516111ce9493929190611d3e565b6020604051602081039080840390855afa1580156111f0573d6000803e3d6000fd5b505050602060405103519050600073ffffffffffffffffffffffffffffffffffffffff168173ffffffffffffffffffffffffffffffffffffffff160361124457600060016000801b93509350935050611253565b8060008060001b935093509350505b9450945094915050565b6060600061126a836112d1565b90506000602067ffffffffffffffff81111561128957611288611bcd565b5b6040519080825280601f01601f1916602001820160405280156112bb5781602001600182028036833780820191505090505b5090508181528360208201528092505050919050565b60008060ff8360001c169050601f811115611318576040517fb3512b0c00000000000000000000000000000000000000000000000000000000815260040160405180910390fd5b80915050919050565b600080fd5b600080fd5b60007fffffffff0000000000000000000000000000000000000000000000000000000082169050919050565b6113608161132b565b811461136b57600080fd5b50565b60008135905061137d81611357565b92915050565b60006020828403121561139957611398611321565b5b60006113a78482850161136e565b91505092915050565b60008115159050919050565b6113c5816113b0565b82525050565b60006020820190506113e060008301846113bc565b92915050565b600073ffffffffffffffffffffffffffffffffffffffff82169050919050565b6000611411826113e6565b9050919050565b61142181611406565b811461142c57600080fd5b50565b60008135905061143e81611418565b92915050565b60006020828403121561145a57611459611321565b5b60006114688482850161142f565b91505092915050565b6000819050919050565b61148481611471565b811461148f57600080fd5b50565b6000813590506114a18161147b565b92915050565b6000602082840312156114bd576114bc611321565b5b60006114cb84828501611492565b91505092915050565b6114dd81611471565b82525050565b60006020820190506114f860008301846114d4565b92915050565b6000806040838503121561151557611514611321565b5b600061152385828601611492565b92505060206115348582860161142f565b9150509250929050565b61154781611406565b82525050565b6000602082019050611562600083018461153e565b92915050565b611571816113b0565b811461157c57600080fd5b50565b60008135905061158e81611568565b92915050565b6000602082840312156115aa576115a9611321565b5b60006115b88482850161157f565b91505092915050565b600080fd5b600080fd5b600080fd5b60008083601f8401126115e6576115e56115c1565b5b8235905067ffffffffffffffff811115611603576116026115c6565b5b60208301915083600182028301111561161f5761161e6115cb565b5b9250929050565b6000819050919050565b61163981611626565b811461164457600080fd5b50565b60008135905061165681611630565b92915050565b6000806000806060858703121561167657611675611321565b5b600085013567ffffffffffffffff81111561169457611693611326565b5b6116a0878288016115d0565b945094505060206116b387828801611647565b92505060406116c487828801611647565b91505092959194509250565b60007fff0000000000000000000000000000000000000000000000000000000000000082169050919050565b611705816116d0565b82525050565b600081519050919050565b600082825260208201905092915050565b60005b8381101561174557808201518184015260208101905061172a565b60008484015250505050565b6000601f19601f8301169050919050565b600061176d8261170b565b6117778185611716565b9350611787818560208601611727565b61179081611751565b840191505092915050565b6117a481611626565b82525050565b600081519050919050565b600082825260208201905092915050565b6000819050602082019050919050565b6117df81611626565b82525050565b60006117f183836117d6565b60208301905092915050565b6000602082019050919050565b6000611815826117aa565b61181f81856117b5565b935061182a836117c6565b8060005b8381101561185b57815161184288826117e5565b975061184d836117fd565b92505060018101905061182e565b5085935050505092915050565b600060e08201905061187d600083018a6116fc565b818103602083015261188f8189611762565b905081810360408301526118a38188611762565b90506118b2606083018761179b565b6118bf608083018661153e565b6118cc60a08301856114d4565b81810360c08301526118de818461180a565b905098975050505050505050565b6000819050919050565b600061191161190c611907846113e6565b6118ec565b6113e6565b9050919050565b6000611923826118f6565b9050919050565b600061193582611918565b9050919050565b6119458161192a565b82525050565b6000602082019050611960600083018461193c565b92915050565b7f4d75737420686176652061646d696e20726f6c652e0000000000000000000000600082015250565b600061199c601583611716565b91506119a782611966565b602082019050919050565b600060208201905081810360008301526119cb8161198f565b9050919050565b60006080820190506119e760008301876114d4565b6119f4602083018661179b565b611a01604083018561153e565b611a0e606083018461179b565b95945050505050565b7f7369676e61747572652075736564000000000000000000000000000000000000600082015250565b6000611a4d600e83611716565b9150611a5882611a17565b602082019050919050565b60006020820190508181036000830152611a7c81611a40565b9050919050565b7f496e76616c6964205369676e6174757265000000000000000000000000000000600082015250565b6000611ab9601183611716565b9150611ac482611a83565b602082019050919050565b60006020820190508181036000830152611ae881611aac565b9050919050565b7f4d696e7420686173206e6f7420626567756e0000000000000000000000000000600082015250565b6000611b25601283611716565b9150611b3082611aef565b602082019050919050565b60006020820190508181036000830152611b5481611b18565b9050919050565b6000819050919050565b6000611b80611b7b611b7684611b5b565b6118ec565b611626565b9050919050565b611b9081611b65565b82525050565b6000606082019050611bab600083018661153e565b611bb8602083018561179b565b611bc56040830184611b87565b949350505050565b7f4e487b7100000000000000000000000000000000000000000000000000000000600052604160045260246000fd5b6000604082019050611c11600083018561153e565b611c1e60208301846114d4565b9392505050565b7f4e487b7100000000000000000000000000000000000000000000000000000000600052602160045260246000fd5b6000602082019050611c69600083018461179b565b92915050565b7f4e487b7100000000000000000000000000000000000000000000000000000000600052602260045260246000fd5b60006002820490506001821680611cb657607f821691505b602082108103611cc957611cc8611c6f565b5b50919050565b600060a082019050611ce460008301886114d4565b611cf160208301876114d4565b611cfe60408301866114d4565b611d0b606083018561179b565b611d18608083018461153e565b9695505050505050565b600060ff82169050919050565b611d3881611d22565b82525050565b6000608082019050611d5360008301876114d4565b611d606020830186611d2f565b611d6d60408301856114d4565b611d7a60608301846114d4565b9594505050505056fea264697066735822122076963c5181376103cbf82a11ae67bef236ebd6848466acb91dbf5f155ec3470664736f6c63430008180033",
  "devdoc": {
    "errors": {
      "AccessControlBadConfirmation()": [
        {
          "details": "The caller of a function is not the expected one. NOTE: Don't confuse with {AccessControlUnauthorizedAccount}."
        }
      ],
      "AccessControlUnauthorizedAccount(address,bytes32)": [
        {
          "details": "The `account` is missing a role."
        }
      ],
      "ECDSAInvalidSignature()": [
        {
          "details": "The signature derives the `address(0)`."
        }
      ],
      "ECDSAInvalidSignatureLength(uint256)": [
        {
          "details": "The signature has an invalid length."
        }
      ],
      "ECDSAInvalidSignatureS(bytes32)": [
        {
          "details": "The signature has an S value that is in the upper half order."
        }
      ]
    },
    "events": {
      "EIP712DomainChanged()": {
        "details": "MAY be emitted to signal that the domain could have changed."
      },
      "RoleAdminChanged(bytes32,bytes32,bytes32)": {
        "details": "Emitted when `newAdminRole` is set as ``role``'s admin role, replacing `previousAdminRole` `DEFAULT_ADMIN_ROLE` is the starting admin for all roles, despite {RoleAdminChanged} not being emitted signaling this."
      },
      "RoleGranted(bytes32,address,address)": {
        "details": "Emitted when `account` is granted `role`. `sender` is the account that originated the contract call, an admin role bearer except when using {AccessControl-_setupRole}."
      },
      "RoleRevoked(bytes32,address,address)": {
        "details": "Emitted when `account` is revoked `role`. `sender` is the account that originated the contract call:   - if using `revokeRole`, it is the admin role bearer   - if using `renounceRole`, it is the role bearer (i.e. `account`)"
      }
    },
    "kind": "dev",
    "methods": {
      "constructor": {
        "params": {
          "_nftAddress": "the address of the erc1155 contract that will be minted",
          "_signerAddress": "the address that will be used to verify mint eligibility"
        }
      },
      "eip712Domain()": {
        "details": "See {IERC-5267}."
      },
      "getRoleAdmin(bytes32)": {
        "details": "Returns the admin role that controls `role`. See {grantRole} and {revokeRole}. To change a role's admin, use {_setRoleAdmin}."
      },
      "grantRole(bytes32,address)": {
        "details": "Grants `role` to `account`. If `account` had not been already granted `role`, emits a {RoleGranted} event. Requirements: - the caller must have ``role``'s admin role. May emit a {RoleGranted} event."
      },
      "hasRole(bytes32,address)": {
        "details": "Returns `true` if `account` has been granted `role`."
      },
      "mint(bytes,uint256,uint256)": {
        "params": {
          "_sig": "signature from developer address allowing this tokenId to be minted",
          "_tokenId": "tokenId that will be minted"
        }
      },
      "renounceRole(bytes32,address)": {
        "details": "Revokes `role` from the calling account. Roles are often managed via {grantRole} and {revokeRole}: this function's purpose is to provide a mechanism for accounts to lose their privileges if they are compromised (such as when a trusted device is misplaced). If the calling account had been revoked `role`, emits a {RoleRevoked} event. Requirements: - the caller must be `callerConfirmation`. May emit a {RoleRevoked} event."
      },
      "revokeRole(bytes32,address)": {
        "details": "Revokes `role` from `account`. If `account` had been granted `role`, emits a {RoleRevoked} event. Requirements: - the caller must have ``role``'s admin role. May emit a {RoleRevoked} event."
      },
      "setMintStarted(bool)": {
        "params": {
          "_isStarted": "used to pause and unpause minting "
        }
      },
      "setSignerAddress(address)": {
        "params": {
          "_signerAddress": "update with new developer address for signatures"
        }
      },
      "supportsInterface(bytes4)": {
        "details": "See {IERC165-supportsInterface}."
      }
    },
    "version": 1
  },
  "userdoc": {
    "kind": "user",
    "methods": {},
    "version": 1
  },
  "storageLayout": {
    "storage": [
      {
        "astId": 26,
        "contract": "contracts/BackendMinter.sol:BackendMinter",
        "label": "_roles",
        "offset": 0,
        "slot": "0",
        "type": "t_mapping(t_bytes32,t_struct(RoleData)21_storage)"
      },
      {
        "astId": 1400,
        "contract": "contracts/BackendMinter.sol:BackendMinter",
        "label": "_nameFallback",
        "offset": 0,
        "slot": "1",
        "type": "t_string_storage"
      },
      {
        "astId": 1402,
        "contract": "contracts/BackendMinter.sol:BackendMinter",
        "label": "_versionFallback",
        "offset": 0,
        "slot": "2",
        "type": "t_string_storage"
      },
      {
        "astId": 2888,
        "contract": "contracts/BackendMinter.sol:BackendMinter",
        "label": "signerAddress",
        "offset": 0,
        "slot": "3",
        "type": "t_address"
      },
      {
        "astId": 2890,
        "contract": "contracts/BackendMinter.sol:BackendMinter",
        "label": "mintStarted",
        "offset": 20,
        "slot": "3",
        "type": "t_bool"
      },
      {
        "astId": 2893,
        "contract": "contracts/BackendMinter.sol:BackendMinter",
        "label": "erc1155",
        "offset": 0,
        "slot": "4",
        "type": "t_contract(IERC1155)2874"
      },
      {
        "astId": 2897,
        "contract": "contracts/BackendMinter.sol:BackendMinter",
        "label": "signatureUsed",
        "offset": 0,
        "slot": "5",
        "type": "t_mapping(t_bytes32,t_bool)"
      }
    ],
    "types": {
      "t_address": {
        "encoding": "inplace",
        "label": "address",
        "numberOfBytes": "20"
      },
      "t_bool": {
        "encoding": "inplace",
        "label": "bool",
        "numberOfBytes": "1"
      },
      "t_bytes32": {
        "encoding": "inplace",
        "label": "bytes32",
        "numberOfBytes": "32"
      },
      "t_contract(IERC1155)2874": {
        "encoding": "inplace",
        "label": "contract IERC1155",
        "numberOfBytes": "20"
      },
      "t_mapping(t_address,t_bool)": {
        "encoding": "mapping",
        "key": "t_address",
        "label": "mapping(address => bool)",
        "numberOfBytes": "32",
        "value": "t_bool"
      },
      "t_mapping(t_bytes32,t_bool)": {
        "encoding": "mapping",
        "key": "t_bytes32",
        "label": "mapping(bytes32 => bool)",
        "numberOfBytes": "32",
        "value": "t_bool"
      },
      "t_mapping(t_bytes32,t_struct(RoleData)21_storage)": {
        "encoding": "mapping",
        "key": "t_bytes32",
        "label": "mapping(bytes32 => struct AccessControl.RoleData)",
        "numberOfBytes": "32",
        "value": "t_struct(RoleData)21_storage"
      },
      "t_string_storage": {
        "encoding": "bytes",
        "label": "string",
        "numberOfBytes": "32"
      },
      "t_struct(RoleData)21_storage": {
        "encoding": "inplace",
        "label": "struct AccessControl.RoleData",
        "members": [
          {
            "astId": 18,
            "contract": "contracts/BackendMinter.sol:BackendMinter",
            "label": "hasRole",
            "offset": 0,
            "slot": "0",
            "type": "t_mapping(t_address,t_bool)"
          },
          {
            "astId": 20,
            "contract": "contracts/BackendMinter.sol:BackendMinter",
            "label": "adminRole",
            "offset": 0,
            "slot": "1",
            "type": "t_bytes32"
          }
        ],
        "numberOfBytes": "64"
      }
    }
  }
}