{
  "address": "0x737A8e3aCF9BBFbf6c414154421780517FdD9Ca3",
  "abi": [
    {
      "inputs": [],
      "name": "AccessControlBadConfirmation",
      "type": "error"
    },
    {
      "inputs": [
        {
          "internalType": "address",
          "name": "account",
          "type": "address"
        },
        {
          "internalType": "bytes32",
          "name": "neededRole",
          "type": "bytes32"
        }
      ],
      "name": "AccessControlUnauthorizedAccount",
      "type": "error"
    },
    {
      "inputs": [
        {
          "internalType": "address",
          "name": "sender",
          "type": "address"
        },
        {
          "internalType": "uint256",
          "name": "balance",
          "type": "uint256"
        },
        {
          "internalType": "uint256",
          "name": "needed",
          "type": "uint256"
        },
        {
          "internalType": "uint256",
          "name": "tokenId",
          "type": "uint256"
        }
      ],
      "name": "ERC1155InsufficientBalance",
      "type": "error"
    },
    {
      "inputs": [
        {
          "internalType": "address",
          "name": "approver",
          "type": "address"
        }
      ],
      "name": "ERC1155InvalidApprover",
      "type": "error"
    },
    {
      "inputs": [
        {
          "internalType": "uint256",
          "name": "idsLength",
          "type": "uint256"
        },
        {
          "internalType": "uint256",
          "name": "valuesLength",
          "type": "uint256"
        }
      ],
      "name": "ERC1155InvalidArrayLength",
      "type": "error"
    },
    {
      "inputs": [
        {
          "internalType": "address",
          "name": "operator",
          "type": "address"
        }
      ],
      "name": "ERC1155InvalidOperator",
      "type": "error"
    },
    {
      "inputs": [
        {
          "internalType": "address",
          "name": "receiver",
          "type": "address"
        }
      ],
      "name": "ERC1155InvalidReceiver",
      "type": "error"
    },
    {
      "inputs": [
        {
          "internalType": "address",
          "name": "sender",
          "type": "address"
        }
      ],
      "name": "ERC1155InvalidSender",
      "type": "error"
    },
    {
      "inputs": [
        {
          "internalType": "address",
          "name": "operator",
          "type": "address"
        },
        {
          "internalType": "address",
          "name": "owner",
          "type": "address"
        }
      ],
      "name": "ERC1155MissingApprovalForAll",
      "type": "error"
    },
    {
      "inputs": [],
      "name": "InvalidInitialization",
      "type": "error"
    },
    {
      "inputs": [],
      "name": "NotInitializing",
      "type": "error"
    },
    {
      "anonymous": false,
      "inputs": [
        {
          "indexed": true,
          "internalType": "address",
          "name": "account",
          "type": "address"
        },
        {
          "indexed": true,
          "internalType": "address",
          "name": "operator",
          "type": "address"
        },
        {
          "indexed": false,
          "internalType": "bool",
          "name": "approved",
          "type": "bool"
        }
      ],
      "name": "ApprovalForAll",
      "type": "event"
    },
    {
      "anonymous": false,
      "inputs": [
        {
          "indexed": false,
          "internalType": "uint64",
          "name": "version",
          "type": "uint64"
        }
      ],
      "name": "Initialized",
      "type": "event"
    },
    {
      "anonymous": false,
      "inputs": [
        {
          "indexed": true,
          "internalType": "bytes32",
          "name": "role",
          "type": "bytes32"
        },
        {
          "indexed": true,
          "internalType": "bytes32",
          "name": "previousAdminRole",
          "type": "bytes32"
        },
        {
          "indexed": true,
          "internalType": "bytes32",
          "name": "newAdminRole",
          "type": "bytes32"
        }
      ],
      "name": "RoleAdminChanged",
      "type": "event"
    },
    {
      "anonymous": false,
      "inputs": [
        {
          "indexed": true,
          "internalType": "bytes32",
          "name": "role",
          "type": "bytes32"
        },
        {
          "indexed": true,
          "internalType": "address",
          "name": "account",
          "type": "address"
        },
        {
          "indexed": true,
          "internalType": "address",
          "name": "sender",
          "type": "address"
        }
      ],
      "name": "RoleGranted",
      "type": "event"
    },
    {
      "anonymous": false,
      "inputs": [
        {
          "indexed": true,
          "internalType": "bytes32",
          "name": "role",
          "type": "bytes32"
        },
        {
          "indexed": true,
          "internalType": "address",
          "name": "account",
          "type": "address"
        },
        {
          "indexed": true,
          "internalType": "address",
          "name": "sender",
          "type": "address"
        }
      ],
      "name": "RoleRevoked",
      "type": "event"
    },
    {
      "anonymous": false,
      "inputs": [
        {
          "indexed": true,
          "internalType": "address",
          "name": "operator",
          "type": "address"
        },
        {
          "indexed": true,
          "internalType": "address",
          "name": "from",
          "type": "address"
        },
        {
          "indexed": true,
          "internalType": "address",
          "name": "to",
          "type": "address"
        },
        {
          "indexed": false,
          "internalType": "uint256[]",
          "name": "ids",
          "type": "uint256[]"
        },
        {
          "indexed": false,
          "internalType": "uint256[]",
          "name": "values",
          "type": "uint256[]"
        }
      ],
      "name": "TransferBatch",
      "type": "event"
    },
    {
      "anonymous": false,
      "inputs": [
        {
          "indexed": true,
          "internalType": "address",
          "name": "operator",
          "type": "address"
        },
        {
          "indexed": true,
          "internalType": "address",
          "name": "from",
          "type": "address"
        },
        {
          "indexed": true,
          "internalType": "address",
          "name": "to",
          "type": "address"
        },
        {
          "indexed": false,
          "internalType": "uint256",
          "name": "id",
          "type": "uint256"
        },
        {
          "indexed": false,
          "internalType": "uint256",
          "name": "value",
          "type": "uint256"
        }
      ],
      "name": "TransferSingle",
      "type": "event"
    },
    {
      "anonymous": false,
      "inputs": [
        {
          "indexed": false,
          "internalType": "string",
          "name": "value",
          "type": "string"
        },
        {
          "indexed": true,
          "internalType": "uint256",
          "name": "id",
          "type": "uint256"
        }
      ],
      "name": "URI",
      "type": "event"
    },
    {
      "inputs": [],
      "name": "DEFAULT_ADMIN_ROLE",
      "outputs": [
        {
          "internalType": "bytes32",
          "name": "",
          "type": "bytes32"
        }
      ],
      "stateMutability": "view",
      "type": "function"
    },
    {
      "inputs": [],
      "name": "MINTER_ROLE",
      "outputs": [
        {
          "internalType": "bytes32",
          "name": "",
          "type": "bytes32"
        }
      ],
      "stateMutability": "view",
      "type": "function"
    },
    {
      "inputs": [
        {
          "internalType": "address",
          "name": "account",
          "type": "address"
        },
        {
          "internalType": "uint256",
          "name": "id",
          "type": "uint256"
        }
      ],
      "name": "balanceOf",
      "outputs": [
        {
          "internalType": "uint256",
          "name": "",
          "type": "uint256"
        }
      ],
      "stateMutability": "view",
      "type": "function"
    },
    {
      "inputs": [
        {
          "internalType": "address[]",
          "name": "accounts",
          "type": "address[]"
        },
        {
          "internalType": "uint256[]",
          "name": "ids",
          "type": "uint256[]"
        }
      ],
      "name": "balanceOfBatch",
      "outputs": [
        {
          "internalType": "uint256[]",
          "name": "",
          "type": "uint256[]"
        }
      ],
      "stateMutability": "view",
      "type": "function"
    },
    {
      "inputs": [],
      "name": "baseTokenURI",
      "outputs": [
        {
          "internalType": "string",
          "name": "",
          "type": "string"
        }
      ],
      "stateMutability": "view",
      "type": "function"
    },
    {
      "inputs": [
        {
          "internalType": "address",
          "name": "account",
          "type": "address"
        },
        {
          "internalType": "uint256",
          "name": "id",
          "type": "uint256"
        },
        {
          "internalType": "uint256",
          "name": "value",
          "type": "uint256"
        }
      ],
      "name": "burn",
      "outputs": [],
      "stateMutability": "nonpayable",
      "type": "function"
    },
    {
      "inputs": [
        {
          "internalType": "address",
          "name": "account",
          "type": "address"
        },
        {
          "internalType": "uint256[]",
          "name": "ids",
          "type": "uint256[]"
        },
        {
          "internalType": "uint256[]",
          "name": "values",
          "type": "uint256[]"
        }
      ],
      "name": "burnBatch",
      "outputs": [],
      "stateMutability": "nonpayable",
      "type": "function"
    },
    {
      "inputs": [
        {
          "internalType": "uint256",
          "name": "",
          "type": "uint256"
        }
      ],
      "name": "customMetadata",
      "outputs": [
        {
          "internalType": "string",
          "name": "",
          "type": "string"
        }
      ],
      "stateMutability": "view",
      "type": "function"
    },
    {
      "inputs": [
        {
          "internalType": "bytes32",
          "name": "role",
          "type": "bytes32"
        }
      ],
      "name": "getRoleAdmin",
      "outputs": [
        {
          "internalType": "bytes32",
          "name": "",
          "type": "bytes32"
        }
      ],
      "stateMutability": "view",
      "type": "function"
    },
    {
      "inputs": [
        {
          "internalType": "bytes32",
          "name": "role",
          "type": "bytes32"
        },
        {
          "internalType": "address",
          "name": "account",
          "type": "address"
        }
      ],
      "name": "grantRole",
      "outputs": [],
      "stateMutability": "nonpayable",
      "type": "function"
    },
    {
      "inputs": [
        {
          "internalType": "bytes32",
          "name": "role",
          "type": "bytes32"
        },
        {
          "internalType": "address",
          "name": "account",
          "type": "address"
        }
      ],
      "name": "hasRole",
      "outputs": [
        {
          "internalType": "bool",
          "name": "",
          "type": "bool"
        }
      ],
      "stateMutability": "view",
      "type": "function"
    },
    {
      "inputs": [
        {
          "internalType": "string",
          "name": "_baseTokenURI",
          "type": "string"
        }
      ],
      "name": "initialize",
      "outputs": [],
      "stateMutability": "nonpayable",
      "type": "function"
    },
    {
      "inputs": [
        {
          "internalType": "address",
          "name": "account",
          "type": "address"
        },
        {
          "internalType": "address",
          "name": "operator",
          "type": "address"
        }
      ],
      "name": "isApprovedForAll",
      "outputs": [
        {
          "internalType": "bool",
          "name": "",
          "type": "bool"
        }
      ],
      "stateMutability": "view",
      "type": "function"
    },
    {
      "inputs": [
        {
          "internalType": "uint256",
          "name": "",
          "type": "uint256"
        }
      ],
      "name": "isCustomMetadata",
      "outputs": [
        {
          "internalType": "bool",
          "name": "",
          "type": "bool"
        }
      ],
      "stateMutability": "view",
      "type": "function"
    },
    {
      "inputs": [
        {
          "internalType": "address",
          "name": "_to",
          "type": "address"
        },
        {
          "internalType": "uint256",
          "name": "_id",
          "type": "uint256"
        },
        {
          "internalType": "uint256",
          "name": "_quantity",
          "type": "uint256"
        }
      ],
      "name": "mint",
      "outputs": [],
      "stateMutability": "nonpayable",
      "type": "function"
    },
    {
      "inputs": [
        {
          "internalType": "address",
          "name": "_to",
          "type": "address"
        },
        {
          "internalType": "uint256[]",
          "name": "_ids",
          "type": "uint256[]"
        },
        {
          "internalType": "uint256[]",
          "name": "_quantities",
          "type": "uint256[]"
        }
      ],
      "name": "mintBatch",
      "outputs": [],
      "stateMutability": "nonpayable",
      "type": "function"
    },
    {
      "inputs": [],
      "name": "owner",
      "outputs": [
        {
          "internalType": "address payable",
          "name": "",
          "type": "address"
        }
      ],
      "stateMutability": "view",
      "type": "function"
    },
    {
      "inputs": [
        {
          "internalType": "bytes32",
          "name": "role",
          "type": "bytes32"
        },
        {
          "internalType": "address",
          "name": "callerConfirmation",
          "type": "address"
        }
      ],
      "name": "renounceRole",
      "outputs": [],
      "stateMutability": "nonpayable",
      "type": "function"
    },
    {
      "inputs": [
        {
          "internalType": "bytes32",
          "name": "role",
          "type": "bytes32"
        },
        {
          "internalType": "address",
          "name": "account",
          "type": "address"
        }
      ],
      "name": "revokeRole",
      "outputs": [],
      "stateMutability": "nonpayable",
      "type": "function"
    },
    {
      "inputs": [
        {
          "internalType": "address",
          "name": "from",
          "type": "address"
        },
        {
          "internalType": "address",
          "name": "to",
          "type": "address"
        },
        {
          "internalType": "uint256[]",
          "name": "ids",
          "type": "uint256[]"
        },
        {
          "internalType": "uint256[]",
          "name": "values",
          "type": "uint256[]"
        },
        {
          "internalType": "bytes",
          "name": "data",
          "type": "bytes"
        }
      ],
      "name": "safeBatchTransferFrom",
      "outputs": [],
      "stateMutability": "nonpayable",
      "type": "function"
    },
    {
      "inputs": [
        {
          "internalType": "address",
          "name": "from",
          "type": "address"
        },
        {
          "internalType": "address",
          "name": "to",
          "type": "address"
        },
        {
          "internalType": "uint256",
          "name": "id",
          "type": "uint256"
        },
        {
          "internalType": "uint256",
          "name": "value",
          "type": "uint256"
        },
        {
          "internalType": "bytes",
          "name": "data",
          "type": "bytes"
        }
      ],
      "name": "safeTransferFrom",
      "outputs": [],
      "stateMutability": "nonpayable",
      "type": "function"
    },
    {
      "inputs": [
        {
          "internalType": "address",
          "name": "operator",
          "type": "address"
        },
        {
          "internalType": "bool",
          "name": "approved",
          "type": "bool"
        }
      ],
      "name": "setApprovalForAll",
      "outputs": [],
      "stateMutability": "nonpayable",
      "type": "function"
    },
    {
      "inputs": [
        {
          "internalType": "uint256",
          "name": "_tokenId",
          "type": "uint256"
        },
        {
          "internalType": "string",
          "name": "_uri",
          "type": "string"
        }
      ],
      "name": "setCustomMetadata",
      "outputs": [],
      "stateMutability": "nonpayable",
      "type": "function"
    },
    {
      "inputs": [
        {
          "internalType": "uint256[]",
          "name": "_tokenIds",
          "type": "uint256[]"
        },
        {
          "internalType": "string[]",
          "name": "_uris",
          "type": "string[]"
        }
      ],
      "name": "setCustomMetadataBatch",
      "outputs": [],
      "stateMutability": "nonpayable",
      "type": "function"
    },
    {
      "inputs": [
        {
          "internalType": "string",
          "name": "_uri",
          "type": "string"
        }
      ],
      "name": "setURI",
      "outputs": [],
      "stateMutability": "nonpayable",
      "type": "function"
    },
    {
      "inputs": [
        {
          "internalType": "bytes4",
          "name": "interfaceId",
          "type": "bytes4"
        }
      ],
      "name": "supportsInterface",
      "outputs": [
        {
          "internalType": "bool",
          "name": "",
          "type": "bool"
        }
      ],
      "stateMutability": "view",
      "type": "function"
    },
    {
      "inputs": [
        {
          "internalType": "uint256",
          "name": "_tokenId",
          "type": "uint256"
        }
      ],
      "name": "unsetCustomMetadata",
      "outputs": [],
      "stateMutability": "nonpayable",
      "type": "function"
    },
    {
      "inputs": [
        {
          "internalType": "uint256[]",
          "name": "_tokenIds",
          "type": "uint256[]"
        }
      ],
      "name": "unsetCustomMetadataBatch",
      "outputs": [],
      "stateMutability": "nonpayable",
      "type": "function"
    },
    {
      "inputs": [
        {
          "internalType": "uint256",
          "name": "_tokenId",
          "type": "uint256"
        }
      ],
      "name": "uri",
      "outputs": [
        {
          "internalType": "string",
          "name": "",
          "type": "string"
        }
      ],
      "stateMutability": "view",
      "type": "function"
    }
  ],
  "transactionHash": "0x21c11f93eb15bb19ed4ab72c0f11d4aa3beb3cc778edf0c5dcedcf98a5616412",
  "args": [],
  "numDeployments": 2,
  "solcInputHash": "5159ef04474723a28af00762e9f86f01",
  "bytecode": "0x608060405234801561001057600080fd5b506140ef806100206000396000f3fe608060405234801561001057600080fd5b50600436106101ce5760003560e01c8063875564db11610104578063d5391393116100a2578063e985e9c511610071578063e985e9c514610537578063f242432a14610567578063f5298aca14610583578063f62d18881461059f576101ce565b8063d5391393146104c3578063d547741f146104e1578063d547cfb7146104fd578063d81d0a151461051b576101ce565b80638da5cb5b116100de5780638da5cb5b1461043b57806391d1485414610459578063a217fddf14610489578063a22cb465146104a7576101ce565b8063875564db146103e75780638954409e146104035780638ba9854c1461041f576101ce565b8063248a9ca31161017157806336568abe1161014b57806336568abe1461034f5780634e1273f41461036b5780636b20c4541461039b578063824757fd146103b7576101ce565b8063248a9ca3146102e75780632eb2c2d6146103175780632f2ff15d14610333576101ce565b80630e89341c116101ad5780630e89341c1461024f5780630fafcbf61461027f5780631199d2981461029b578063156e29f6146102cb576101ce565b8062fdd58e146101d357806301ffc9a71461020357806302fe530514610233575b600080fd5b6101ed60048036038101906101e89190612b12565b6105bb565b6040516101fa9190612b61565b60405180910390f35b61021d60048036038101906102189190612bd4565b610624565b60405161022a9190612c1c565b60405180910390f35b61024d60048036038101906102489190612d7d565b61069e565b005b61026960048036038101906102649190612dc6565b6106fd565b6040516102769190612e72565b60405180910390f35b61029960048036038101906102949190612dc6565b6107fb565b005b6102b560048036038101906102b09190612dc6565b610853565b6040516102c29190612e72565b60405180910390f35b6102e560048036038101906102e09190612e94565b6108f3565b005b61030160048036038101906102fc9190612f1d565b61097c565b60405161030e9190612f59565b60405180910390f35b610331600480360381019061032c91906130dd565b6109aa565b005b61034d600480360381019061034891906131ac565b610a52565b005b610369600480360381019061036491906131ac565b610a74565b005b610385600480360381019061038091906132af565b610aef565b60405161039291906133e5565b60405180910390f35b6103b560048036038101906103b09190613407565b610bf8565b005b6103d160048036038101906103cc9190612dc6565b610ca4565b6040516103de9190612c1c565b60405180910390f35b61040160048036038101906103fc9190613573565b610cc4565b005b61041d600480360381019061041891906135eb565b610db0565b005b61043960048036038101906104349190613647565b610e0a565b005b610443610e96565b60405161045091906136b1565b60405180910390f35b610473600480360381019061046e91906131ac565b610eba565b6040516104809190612c1c565b60405180910390f35b610491610f33565b60405161049e9190612f59565b60405180910390f35b6104c160048036038101906104bc91906136f8565b610f3a565b005b6104cb610f50565b6040516104d89190612f59565b60405180910390f35b6104fb60048036038101906104f691906131ac565b610f74565b005b610505610f96565b6040516105129190612e72565b60405180910390f35b61053560048036038101906105309190613407565b611024565b005b610551600480360381019061054c9190613738565b6110ad565b60405161055e9190612c1c565b60405180910390f35b610581600480360381019061057c9190613778565b61114f565b005b61059d60048036038101906105989190612e94565b6111f7565b005b6105b960048036038101906105b49190612d7d565b6112a3565b005b6000806105c6611483565b905080600001600084815260200190815260200160002060008573ffffffffffffffffffffffffffffffffffffffff1673ffffffffffffffffffffffffffffffffffffffff1681526020019081526020016000205491505092915050565b60007f9e094e9e000000000000000000000000000000000000000000000000000000007bffffffffffffffffffffffffffffffffffffffffffffffffffffffff1916827bffffffffffffffffffffffffffffffffffffffffffffffffffffffff191614806106975750610696826114ab565b5b9050919050565b6106ab6000801b33610eba565b6106ea576040517f08c379a00000000000000000000000000000000000000000000000000000000081526004016106e19061385b565b60405180910390fd5b80600190816106f99190613a87565b5050565b60606002600083815260200190815260200160002060009054906101000a900460ff16156107c857600360008381526020019081526020016000208054610743906138aa565b80601f016020809104026020016040519081016040528092919081815260200182805461076f906138aa565b80156107bc5780601f10610791576101008083540402835291602001916107bc565b820191906000526020600020905b81548152906001019060200180831161079f57829003601f168201915b505050505090506107f6565b60016107d383611525565b6040516020016107e4929190613c18565b60405160208183030381529060405290505b919050565b6108086000801b33610eba565b610847576040517f08c379a000000000000000000000000000000000000000000000000000000000815260040161083e9061385b565b60405180910390fd5b610850816115f3565b50565b60036020528060005260406000206000915090508054610872906138aa565b80601f016020809104026020016040519081016040528092919081815260200182805461089e906138aa565b80156108eb5780601f106108c0576101008083540402835291602001916108eb565b820191906000526020600020905b8154815290600101906020018083116108ce57829003601f168201915b505050505081565b61091d7f9f2df0fed2c77648de5860a4cc508cd0818c85b8b8a1ab4ceeef8d981c8956a633610eba565b61095c576040517f08c379a000000000000000000000000000000000000000000000000000000000815260040161095390613c88565b60405180910390fd5b61097783838360405180602001604052806000815250611622565b505050565b6000806109876116bb565b905080600001600084815260200190815260200160002060010154915050919050565b60006109b46116e3565b90508073ffffffffffffffffffffffffffffffffffffffff168673ffffffffffffffffffffffffffffffffffffffff16141580156109f957506109f786826110ad565b155b15610a3d5780866040517fe237d922000000000000000000000000000000000000000000000000000000008152600401610a34929190613cb7565b60405180910390fd5b610a4a86868686866116eb565b505050505050565b610a5b8261097c565b610a64816117e3565b610a6e83836117f7565b50505050565b610a7c6116e3565b73ffffffffffffffffffffffffffffffffffffffff168173ffffffffffffffffffffffffffffffffffffffff1614610ae0576040517f6697b23200000000000000000000000000000000000000000000000000000000815260040160405180910390fd5b610aea82826118f8565b505050565b60608151835114610b3b57815183516040517f5b059991000000000000000000000000000000000000000000000000000000008152600401610b32929190613ce0565b60405180910390fd5b6000835167ffffffffffffffff811115610b5857610b57612c52565b5b604051908082528060200260200182016040528015610b865781602001602082028036833780820191505090505b50905060005b8451811015610bed57610bc3610bab82876119fa90919063ffffffff16565b610bbe8387611a0e90919063ffffffff16565b6105bb565b828281518110610bd657610bd5613d09565b5b602002602001018181525050806001019050610b8c565b508091505092915050565b610c006116e3565b73ffffffffffffffffffffffffffffffffffffffff168373ffffffffffffffffffffffffffffffffffffffff1614158015610c495750610c4783610c426116e3565b6110ad565b155b15610c9457610c566116e3565b836040517fe237d922000000000000000000000000000000000000000000000000000000008152600401610c8b929190613cb7565b60405180910390fd5b610c9f838383611a22565b505050565b60026020528060005260406000206000915054906101000a900460ff1681565b610cd16000801b33610eba565b610d10576040517f08c379a0000000000000000000000000000000000000000000000000000000008152600401610d079061385b565b60405180910390fd5b8051825114610d54576040517f08c379a0000000000000000000000000000000000000000000000000000000008152600401610d4b90613d84565b60405180910390fd5b60005b8251811015610dab57610d9e838281518110610d7657610d75613d09565b5b6020026020010151838381518110610d9157610d90613d09565b5b6020026020010151611ab6565b8080600101915050610d57565b505050565b610dbd6000801b33610eba565b610dfc576040517f08c379a0000000000000000000000000000000000000000000000000000000008152600401610df39061385b565b60405180910390fd5b610e068282611ab6565b5050565b610e176000801b33610eba565b610e56576040517f08c379a0000000000000000000000000000000000000000000000000000000008152600401610e4d9061385b565b60405180910390fd5b60005b8151811015610e9257610e85828281518110610e7857610e77613d09565b5b60200260200101516115f3565b8080600101915050610e59565b5050565b60008054906101000a900473ffffffffffffffffffffffffffffffffffffffff1681565b600080610ec56116bb565b905080600001600085815260200190815260200160002060000160008473ffffffffffffffffffffffffffffffffffffffff1673ffffffffffffffffffffffffffffffffffffffff16815260200190815260200160002060009054906101000a900460ff1691505092915050565b6000801b81565b610f4c610f456116e3565b8383611b07565b5050565b7f9f2df0fed2c77648de5860a4cc508cd0818c85b8b8a1ab4ceeef8d981c8956a681565b610f7d8261097c565b610f86816117e3565b610f9083836118f8565b50505050565b60018054610fa3906138aa565b80601f0160208091040260200160405190810160405280929190818152602001828054610fcf906138aa565b801561101c5780601f10610ff15761010080835404028352916020019161101c565b820191906000526020600020905b815481529060010190602001808311610fff57829003601f168201915b505050505081565b61104e7f9f2df0fed2c77648de5860a4cc508cd0818c85b8b8a1ab4ceeef8d981c8956a633610eba565b61108d576040517f08c379a000000000000000000000000000000000000000000000000000000000815260040161108490613c88565b60405180910390fd5b6110a883838360405180602001604052806000815250611c86565b505050565b6000806110b8611483565b90508060010160008573ffffffffffffffffffffffffffffffffffffffff1673ffffffffffffffffffffffffffffffffffffffff16815260200190815260200160002060008473ffffffffffffffffffffffffffffffffffffffff1673ffffffffffffffffffffffffffffffffffffffff16815260200190815260200160002060009054906101000a900460ff1691505092915050565b60006111596116e3565b90508073ffffffffffffffffffffffffffffffffffffffff168673ffffffffffffffffffffffffffffffffffffffff161415801561119e575061119c86826110ad565b155b156111e25780866040517fe237d9220000000000000000000000000000000000000000000000000000000081526004016111d9929190613cb7565b60405180910390fd5b6111ef8686868686611d0c565b505050505050565b6111ff6116e3565b73ffffffffffffffffffffffffffffffffffffffff168373ffffffffffffffffffffffffffffffffffffffff16141580156112485750611246836112416116e3565b6110ad565b155b15611293576112556116e3565b836040517fe237d92200000000000000000000000000000000000000000000000000000000815260040161128a929190613cb7565b60405180910390fd5b61129e838383611e17565b505050565b60006112ad611ebe565b905060008160000160089054906101000a900460ff1615905060008260000160009054906101000a900467ffffffffffffffff1690506000808267ffffffffffffffff161480156112fb5750825b9050600060018367ffffffffffffffff16148015611330575060003073ffffffffffffffffffffffffffffffffffffffff163b145b90508115801561133e575080155b15611375576040517ff92ee8a900000000000000000000000000000000000000000000000000000000815260040160405180910390fd5b60018560000160006101000a81548167ffffffffffffffff021916908367ffffffffffffffff16021790555083156113c55760018560000160086101000a81548160ff0219169083151502179055505b6113cd611ee6565b6113d686611ef0565b85600190816113e59190613a87565b506113f36000801b336117f7565b5061141e7f9f2df0fed2c77648de5860a4cc508cd0818c85b8b8a1ab4ceeef8d981c8956a6336117f7565b50831561147b5760008560000160086101000a81548160ff0219169083151502179055507fc7f505b2f371ae2175ee4913f4499e1f2633a7b5936321eed1cdaeb6115181d260016040516114729190613df3565b60405180910390a15b505050505050565b60007f88be536d5240c274a3b1d3a1be54482fd9caa294f08c62a7cde569f49a3c4500905090565b60007f7965db0b000000000000000000000000000000000000000000000000000000007bffffffffffffffffffffffffffffffffffffffffffffffffffffffff1916827bffffffffffffffffffffffffffffffffffffffffffffffffffffffff1916148061151e575061151d82611f12565b5b9050919050565b60606000600161153484611ff4565b01905060008167ffffffffffffffff81111561155357611552612c52565b5b6040519080825280601f01601f1916602001820160405280156115855781602001600182028036833780820191505090505b509050600082602001820190505b6001156115e8578080600190039150507f3031323334353637383961626364656600000000000000000000000000000000600a86061a8153600a85816115dc576115db613e0e565b5b04945060008503611593575b819350505050919050565b60006002600083815260200190815260200160002060006101000a81548160ff02191690831515021790555050565b600073ffffffffffffffffffffffffffffffffffffffff168473ffffffffffffffffffffffffffffffffffffffff16036116945760006040517f57f447ce00000000000000000000000000000000000000000000000000000000815260040161168b9190613e3d565b60405180910390fd5b6000806116a18585612147565b915091506116b3600087848487612177565b505050505050565b60007f02dd7bc7dec4dceedda775e58dd541e08a116c6c53815c0bd028192f7b626800905090565b600033905090565b600073ffffffffffffffffffffffffffffffffffffffff168473ffffffffffffffffffffffffffffffffffffffff160361175d5760006040517f57f447ce0000000000000000000000000000000000000000000000000000000081526004016117549190613e3d565b60405180910390fd5b600073ffffffffffffffffffffffffffffffffffffffff168573ffffffffffffffffffffffffffffffffffffffff16036117cf5760006040517f01a835140000000000000000000000000000000000000000000000000000000081526004016117c69190613e3d565b60405180910390fd5b6117dc8585858585612177565b5050505050565b6117f4816117ef6116e3565b612229565b50565b6000806118026116bb565b905061180e8484610eba565b6118ec57600181600001600086815260200190815260200160002060000160008573ffffffffffffffffffffffffffffffffffffffff1673ffffffffffffffffffffffffffffffffffffffff16815260200190815260200160002060006101000a81548160ff0219169083151502179055506118886116e3565b73ffffffffffffffffffffffffffffffffffffffff168373ffffffffffffffffffffffffffffffffffffffff16857f2f8788117e7eff1d82e926ec794901d17c78024a50270940304540a733656f0d60405160405180910390a460019150506118f2565b60009150505b92915050565b6000806119036116bb565b905061190f8484610eba565b156119ee57600081600001600086815260200190815260200160002060000160008573ffffffffffffffffffffffffffffffffffffffff1673ffffffffffffffffffffffffffffffffffffffff16815260200190815260200160002060006101000a81548160ff02191690831515021790555061198a6116e3565b73ffffffffffffffffffffffffffffffffffffffff168373ffffffffffffffffffffffffffffffffffffffff16857ff6391f5c32d9c69d2a47ea670b442974b53935d1edc7fd64eb21e047a839171b60405160405180910390a460019150506119f4565b60009150505b92915050565b600060208202602084010151905092915050565b600060208202602084010151905092915050565b600073ffffffffffffffffffffffffffffffffffffffff168373ffffffffffffffffffffffffffffffffffffffff1603611a945760006040517f01a83514000000000000000000000000000000000000000000000000000000008152600401611a8b9190613e3d565b60405180910390fd5b611ab1836000848460405180602001604052806000815250612177565b505050565b60016002600084815260200190815260200160002060006101000a81548160ff02191690831515021790555080600360008481526020019081526020016000209081611b029190613a87565b505050565b6000611b11611483565b9050600073ffffffffffffffffffffffffffffffffffffffff168373ffffffffffffffffffffffffffffffffffffffff1603611b855760006040517fced3e100000000000000000000000000000000000000000000000000000000008152600401611b7c9190613e3d565b60405180910390fd5b818160010160008673ffffffffffffffffffffffffffffffffffffffff1673ffffffffffffffffffffffffffffffffffffffff16815260200190815260200160002060008573ffffffffffffffffffffffffffffffffffffffff1673ffffffffffffffffffffffffffffffffffffffff16815260200190815260200160002060006101000a81548160ff0219169083151502179055508273ffffffffffffffffffffffffffffffffffffffff168473ffffffffffffffffffffffffffffffffffffffff167f17307eab39ab6107e8899845ad3d59bd9653f200f220920489ca2b5937696c3184604051611c789190612c1c565b60405180910390a350505050565b600073ffffffffffffffffffffffffffffffffffffffff168473ffffffffffffffffffffffffffffffffffffffff1603611cf85760006040517f57f447ce000000000000000000000000000000000000000000000000000000008152600401611cef9190613e3d565b60405180910390fd5b611d06600085858585612177565b50505050565b600073ffffffffffffffffffffffffffffffffffffffff168473ffffffffffffffffffffffffffffffffffffffff1603611d7e5760006040517f57f447ce000000000000000000000000000000000000000000000000000000008152600401611d759190613e3d565b60405180910390fd5b600073ffffffffffffffffffffffffffffffffffffffff168573ffffffffffffffffffffffffffffffffffffffff1603611df05760006040517f01a83514000000000000000000000000000000000000000000000000000000008152600401611de79190613e3d565b60405180910390fd5b600080611dfd8585612147565b91509150611e0e8787848487612177565b50505050505050565b600073ffffffffffffffffffffffffffffffffffffffff168373ffffffffffffffffffffffffffffffffffffffff1603611e895760006040517f01a83514000000000000000000000000000000000000000000000000000000008152600401611e809190613e3d565b60405180910390fd5b600080611e968484612147565b91509150611eb7856000848460405180602001604052806000815250612177565b5050505050565b60007ff0c57e16840df040f15088dc2f81fe391c3923bec73e23a9662efc9c229c6a00905090565b611eee61227a565b565b6000611efa611483565b905081816002019081611f0d9190613a87565b505050565b60007fd9b67a26000000000000000000000000000000000000000000000000000000007bffffffffffffffffffffffffffffffffffffffffffffffffffffffff1916827bffffffffffffffffffffffffffffffffffffffffffffffffffffffff19161480611fdd57507f0e89341c000000000000000000000000000000000000000000000000000000007bffffffffffffffffffffffffffffffffffffffffffffffffffffffff1916827bffffffffffffffffffffffffffffffffffffffffffffffffffffffff1916145b80611fed5750611fec826122ba565b5b9050919050565b600080600090507a184f03e93ff9f4daa797ed6e38ed64bf6a1f0100000000000000008310612052577a184f03e93ff9f4daa797ed6e38ed64bf6a1f010000000000000000838161204857612047613e0e565b5b0492506040810190505b6d04ee2d6d415b85acef8100000000831061208f576d04ee2d6d415b85acef8100000000838161208557612084613e0e565b5b0492506020810190505b662386f26fc1000083106120be57662386f26fc1000083816120b4576120b3613e0e565b5b0492506010810190505b6305f5e10083106120e7576305f5e10083816120dd576120dc613e0e565b5b0492506008810190505b612710831061210c57612710838161210257612101613e0e565b5b0492506004810190505b6064831061212f576064838161212557612124613e0e565b5b0492506002810190505b600a831061213e576001810190505b80915050919050565b60608060405191506001825283602083015260408201905060018152826020820152604081016040529250929050565b61218385858585612324565b600073ffffffffffffffffffffffffffffffffffffffff168473ffffffffffffffffffffffffffffffffffffffff16146122225760006121c16116e3565b905060018451036122115760006121e2600086611a0e90919063ffffffff16565b905060006121fa600086611a0e90919063ffffffff16565b905061220a8389898585896126e2565b5050612220565b61221f818787878787612896565b5b505b5050505050565b6122338282610eba565b6122765780826040517fe2517d3f00000000000000000000000000000000000000000000000000000000815260040161226d929190613e58565b60405180910390fd5b5050565b612282612a4a565b6122b8576040517fd7e6bcf800000000000000000000000000000000000000000000000000000000815260040160405180910390fd5b565b60007f01ffc9a7000000000000000000000000000000000000000000000000000000007bffffffffffffffffffffffffffffffffffffffffffffffffffffffff1916827bffffffffffffffffffffffffffffffffffffffffffffffffffffffff1916149050919050565b600061232e611483565b9050815183511461237a57825182516040517f5b059991000000000000000000000000000000000000000000000000000000008152600401612371929190613ce0565b60405180910390fd5b60006123846116e3565b905060005b845181101561259c5760006123a78287611a0e90919063ffffffff16565b905060006123be8387611a0e90919063ffffffff16565b9050600073ffffffffffffffffffffffffffffffffffffffff168973ffffffffffffffffffffffffffffffffffffffff16146124f157600085600001600084815260200190815260200160002060008b73ffffffffffffffffffffffffffffffffffffffff1673ffffffffffffffffffffffffffffffffffffffff1681526020019081526020016000205490508181101561249657898183856040517f03dee4c500000000000000000000000000000000000000000000000000000000815260040161248d9493929190613e81565b60405180910390fd5b81810386600001600085815260200190815260200160002060008c73ffffffffffffffffffffffffffffffffffffffff1673ffffffffffffffffffffffffffffffffffffffff16815260200190815260200160002081905550505b600073ffffffffffffffffffffffffffffffffffffffff168873ffffffffffffffffffffffffffffffffffffffff161461258f578085600001600084815260200190815260200160002060008a73ffffffffffffffffffffffffffffffffffffffff1673ffffffffffffffffffffffffffffffffffffffff16815260200190815260200160002060008282546125879190613ef5565b925050819055505b5050806001019050612389565b50600184510361265b5760006125bc600086611a0e90919063ffffffff16565b905060006125d4600086611a0e90919063ffffffff16565b90508673ffffffffffffffffffffffffffffffffffffffff168873ffffffffffffffffffffffffffffffffffffffff168473ffffffffffffffffffffffffffffffffffffffff167fc3d58168c5ae7397731d063d5bbf3d657854427343f4c083240f7aacaa2d0f62858560405161264c929190613ce0565b60405180910390a450506126da565b8473ffffffffffffffffffffffffffffffffffffffff168673ffffffffffffffffffffffffffffffffffffffff168273ffffffffffffffffffffffffffffffffffffffff167f4a39dc06d4c0dbc64b70af90fd698a233a518aa5d07e595d983b8c0526c8f7fb87876040516126d1929190613f29565b60405180910390a45b505050505050565b60008473ffffffffffffffffffffffffffffffffffffffff163b111561288e578373ffffffffffffffffffffffffffffffffffffffff1663f23a6e6187878686866040518663ffffffff1660e01b8152600401612743959493929190613fb5565b6020604051808303816000875af192505050801561277f57506040513d601f19601f8201168201806040525081019061277c9190614024565b60015b612803573d80600081146127af576040519150601f19603f3d011682016040523d82523d6000602084013e6127b4565b606091505b5060008151036127fb57846040517f57f447ce0000000000000000000000000000000000000000000000000000000081526004016127f29190613e3d565b60405180910390fd5b805181602001fd5b63f23a6e6160e01b7bffffffffffffffffffffffffffffffffffffffffffffffffffffffff1916817bffffffffffffffffffffffffffffffffffffffffffffffffffffffff19161461288c57846040517f57f447ce0000000000000000000000000000000000000000000000000000000081526004016128839190613e3d565b60405180910390fd5b505b505050505050565b60008473ffffffffffffffffffffffffffffffffffffffff163b1115612a42578373ffffffffffffffffffffffffffffffffffffffff1663bc197c8187878686866040518663ffffffff1660e01b81526004016128f7959493929190614051565b6020604051808303816000875af192505050801561293357506040513d601f19601f820116820180604052508101906129309190614024565b60015b6129b7573d8060008114612963576040519150601f19603f3d011682016040523d82523d6000602084013e612968565b606091505b5060008151036129af57846040517f57f447ce0000000000000000000000000000000000000000000000000000000081526004016129a69190613e3d565b60405180910390fd5b805181602001fd5b63bc197c8160e01b7bffffffffffffffffffffffffffffffffffffffffffffffffffffffff1916817bffffffffffffffffffffffffffffffffffffffffffffffffffffffff191614612a4057846040517f57f447ce000000000000000000000000000000000000000000000000000000008152600401612a379190613e3d565b60405180910390fd5b505b505050505050565b6000612a54611ebe565b60000160089054906101000a900460ff16905090565b6000604051905090565b600080fd5b600080fd5b600073ffffffffffffffffffffffffffffffffffffffff82169050919050565b6000612aa982612a7e565b9050919050565b612ab981612a9e565b8114612ac457600080fd5b50565b600081359050612ad681612ab0565b92915050565b6000819050919050565b612aef81612adc565b8114612afa57600080fd5b50565b600081359050612b0c81612ae6565b92915050565b60008060408385031215612b2957612b28612a74565b5b6000612b3785828601612ac7565b9250506020612b4885828601612afd565b9150509250929050565b612b5b81612adc565b82525050565b6000602082019050612b766000830184612b52565b92915050565b60007fffffffff0000000000000000000000000000000000000000000000000000000082169050919050565b612bb181612b7c565b8114612bbc57600080fd5b50565b600081359050612bce81612ba8565b92915050565b600060208284031215612bea57612be9612a74565b5b6000612bf884828501612bbf565b91505092915050565b60008115159050919050565b612c1681612c01565b82525050565b6000602082019050612c316000830184612c0d565b92915050565b600080fd5b600080fd5b6000601f19601f8301169050919050565b7f4e487b7100000000000000000000000000000000000000000000000000000000600052604160045260246000fd5b612c8a82612c41565b810181811067ffffffffffffffff82111715612ca957612ca8612c52565b5b80604052505050565b6000612cbc612a6a565b9050612cc88282612c81565b919050565b600067ffffffffffffffff821115612ce857612ce7612c52565b5b612cf182612c41565b9050602081019050919050565b82818337600083830152505050565b6000612d20612d1b84612ccd565b612cb2565b905082815260208101848484011115612d3c57612d3b612c3c565b5b612d47848285612cfe565b509392505050565b600082601f830112612d6457612d63612c37565b5b8135612d74848260208601612d0d565b91505092915050565b600060208284031215612d9357612d92612a74565b5b600082013567ffffffffffffffff811115612db157612db0612a79565b5b612dbd84828501612d4f565b91505092915050565b600060208284031215612ddc57612ddb612a74565b5b6000612dea84828501612afd565b91505092915050565b600081519050919050565b600082825260208201905092915050565b60005b83811015612e2d578082015181840152602081019050612e12565b60008484015250505050565b6000612e4482612df3565b612e4e8185612dfe565b9350612e5e818560208601612e0f565b612e6781612c41565b840191505092915050565b60006020820190508181036000830152612e8c8184612e39565b905092915050565b600080600060608486031215612ead57612eac612a74565b5b6000612ebb86828701612ac7565b9350506020612ecc86828701612afd565b9250506040612edd86828701612afd565b9150509250925092565b6000819050919050565b612efa81612ee7565b8114612f0557600080fd5b50565b600081359050612f1781612ef1565b92915050565b600060208284031215612f3357612f32612a74565b5b6000612f4184828501612f08565b91505092915050565b612f5381612ee7565b82525050565b6000602082019050612f6e6000830184612f4a565b92915050565b600067ffffffffffffffff821115612f8f57612f8e612c52565b5b602082029050602081019050919050565b600080fd5b6000612fb8612fb384612f74565b612cb2565b90508083825260208201905060208402830185811115612fdb57612fda612fa0565b5b835b818110156130045780612ff08882612afd565b845260208401935050602081019050612fdd565b5050509392505050565b600082601f83011261302357613022612c37565b5b8135613033848260208601612fa5565b91505092915050565b600067ffffffffffffffff82111561305757613056612c52565b5b61306082612c41565b9050602081019050919050565b600061308061307b8461303c565b612cb2565b90508281526020810184848401111561309c5761309b612c3c565b5b6130a7848285612cfe565b509392505050565b600082601f8301126130c4576130c3612c37565b5b81356130d484826020860161306d565b91505092915050565b600080600080600060a086880312156130f9576130f8612a74565b5b600061310788828901612ac7565b955050602061311888828901612ac7565b945050604086013567ffffffffffffffff81111561313957613138612a79565b5b6131458882890161300e565b935050606086013567ffffffffffffffff81111561316657613165612a79565b5b6131728882890161300e565b925050608086013567ffffffffffffffff81111561319357613192612a79565b5b61319f888289016130af565b9150509295509295909350565b600080604083850312156131c3576131c2612a74565b5b60006131d185828601612f08565b92505060206131e285828601612ac7565b9150509250929050565b600067ffffffffffffffff82111561320757613206612c52565b5b602082029050602081019050919050565b600061322b613226846131ec565b612cb2565b9050808382526020820190506020840283018581111561324e5761324d612fa0565b5b835b8181101561327757806132638882612ac7565b845260208401935050602081019050613250565b5050509392505050565b600082601f83011261329657613295612c37565b5b81356132a6848260208601613218565b91505092915050565b600080604083850312156132c6576132c5612a74565b5b600083013567ffffffffffffffff8111156132e4576132e3612a79565b5b6132f085828601613281565b925050602083013567ffffffffffffffff81111561331157613310612a79565b5b61331d8582860161300e565b9150509250929050565b600081519050919050565b600082825260208201905092915050565b6000819050602082019050919050565b61335c81612adc565b82525050565b600061336e8383613353565b60208301905092915050565b6000602082019050919050565b600061339282613327565b61339c8185613332565b93506133a783613343565b8060005b838110156133d85781516133bf8882613362565b97506133ca8361337a565b9250506001810190506133ab565b5085935050505092915050565b600060208201905081810360008301526133ff8184613387565b905092915050565b6000806000606084860312156134205761341f612a74565b5b600061342e86828701612ac7565b935050602084013567ffffffffffffffff81111561344f5761344e612a79565b5b61345b8682870161300e565b925050604084013567ffffffffffffffff81111561347c5761347b612a79565b5b6134888682870161300e565b9150509250925092565b600067ffffffffffffffff8211156134ad576134ac612c52565b5b602082029050602081019050919050565b60006134d16134cc84613492565b612cb2565b905080838252602082019050602084028301858111156134f4576134f3612fa0565b5b835b8181101561353b57803567ffffffffffffffff81111561351957613518612c37565b5b8086016135268982612d4f565b855260208501945050506020810190506134f6565b5050509392505050565b600082601f83011261355a57613559612c37565b5b813561356a8482602086016134be565b91505092915050565b6000806040838503121561358a57613589612a74565b5b600083013567ffffffffffffffff8111156135a8576135a7612a79565b5b6135b48582860161300e565b925050602083013567ffffffffffffffff8111156135d5576135d4612a79565b5b6135e185828601613545565b9150509250929050565b6000806040838503121561360257613601612a74565b5b600061361085828601612afd565b925050602083013567ffffffffffffffff81111561363157613630612a79565b5b61363d85828601612d4f565b9150509250929050565b60006020828403121561365d5761365c612a74565b5b600082013567ffffffffffffffff81111561367b5761367a612a79565b5b6136878482850161300e565b91505092915050565b600061369b82612a7e565b9050919050565b6136ab81613690565b82525050565b60006020820190506136c660008301846136a2565b92915050565b6136d581612c01565b81146136e057600080fd5b50565b6000813590506136f2816136cc565b92915050565b6000806040838503121561370f5761370e612a74565b5b600061371d85828601612ac7565b925050602061372e858286016136e3565b9150509250929050565b6000806040838503121561374f5761374e612a74565b5b600061375d85828601612ac7565b925050602061376e85828601612ac7565b9150509250929050565b600080600080600060a0868803121561379457613793612a74565b5b60006137a288828901612ac7565b95505060206137b388828901612ac7565b94505060406137c488828901612afd565b93505060606137d588828901612afd565b925050608086013567ffffffffffffffff8111156137f6576137f5612a79565b5b613802888289016130af565b9150509295509295909350565b7f4d75737420686176652061646d696e20726f6c652e0000000000000000000000600082015250565b6000613845601583612dfe565b91506138508261380f565b602082019050919050565b6000602082019050818103600083015261387481613838565b9050919050565b7f4e487b7100000000000000000000000000000000000000000000000000000000600052602260045260246000fd5b600060028204905060018216806138c257607f821691505b6020821081036138d5576138d461387b565b5b50919050565b60008190508160005260206000209050919050565b60006020601f8301049050919050565b600082821b905092915050565b60006008830261393d7fffffffffffffffffffffffffffffffffffffffffffffffffffffffffffffffff82613900565b6139478683613900565b95508019841693508086168417925050509392505050565b6000819050919050565b600061398461397f61397a84612adc565b61395f565b612adc565b9050919050565b6000819050919050565b61399e83613969565b6139b26139aa8261398b565b84845461390d565b825550505050565b600090565b6139c76139ba565b6139d2818484613995565b505050565b5b818110156139f6576139eb6000826139bf565b6001810190506139d8565b5050565b601f821115613a3b57613a0c816138db565b613a15846138f0565b81016020851015613a24578190505b613a38613a30856138f0565b8301826139d7565b50505b505050565b600082821c905092915050565b6000613a5e60001984600802613a40565b1980831691505092915050565b6000613a778383613a4d565b9150826002028217905092915050565b613a9082612df3565b67ffffffffffffffff811115613aa957613aa8612c52565b5b613ab382546138aa565b613abe8282856139fa565b600060209050601f831160018114613af15760008415613adf578287015190505b613ae98582613a6b565b865550613b51565b601f198416613aff866138db565b60005b82811015613b2757848901518255600182019150602085019450602081019050613b02565b86831015613b445784890151613b40601f891682613a4d565b8355505b6001600288020188555050505b505050505050565b600081905092915050565b60008154613b71816138aa565b613b7b8186613b59565b94506001821660008114613b965760018114613bab57613bde565b60ff1983168652811515820286019350613bde565b613bb4856138db565b60005b83811015613bd657815481890152600182019150602081019050613bb7565b838801955050505b50505092915050565b6000613bf282612df3565b613bfc8185613b59565b9350613c0c818560208601612e0f565b80840191505092915050565b6000613c248285613b64565b9150613c308284613be7565b91508190509392505050565b7f4d7573742068617665206d696e74657220726f6c652e00000000000000000000600082015250565b6000613c72601683612dfe565b9150613c7d82613c3c565b602082019050919050565b60006020820190508181036000830152613ca181613c65565b9050919050565b613cb181612a9e565b82525050565b6000604082019050613ccc6000830185613ca8565b613cd96020830184613ca8565b9392505050565b6000604082019050613cf56000830185612b52565b613d026020830184612b52565b9392505050565b7f4e487b7100000000000000000000000000000000000000000000000000000000600052603260045260246000fd5b7f496e76616c69642061727261792073697a657300000000000000000000000000600082015250565b6000613d6e601383612dfe565b9150613d7982613d38565b602082019050919050565b60006020820190508181036000830152613d9d81613d61565b9050919050565b6000819050919050565b600067ffffffffffffffff82169050919050565b6000613ddd613dd8613dd384613da4565b61395f565b613dae565b9050919050565b613ded81613dc2565b82525050565b6000602082019050613e086000830184613de4565b92915050565b7f4e487b7100000000000000000000000000000000000000000000000000000000600052601260045260246000fd5b6000602082019050613e526000830184613ca8565b92915050565b6000604082019050613e6d6000830185613ca8565b613e7a6020830184612f4a565b9392505050565b6000608082019050613e966000830187613ca8565b613ea36020830186612b52565b613eb06040830185612b52565b613ebd6060830184612b52565b95945050505050565b7f4e487b7100000000000000000000000000000000000000000000000000000000600052601160045260246000fd5b6000613f0082612adc565b9150613f0b83612adc565b9250828201905080821115613f2357613f22613ec6565b5b92915050565b60006040820190508181036000830152613f438185613387565b90508181036020830152613f578184613387565b90509392505050565b600081519050919050565b600082825260208201905092915050565b6000613f8782613f60565b613f918185613f6b565b9350613fa1818560208601612e0f565b613faa81612c41565b840191505092915050565b600060a082019050613fca6000830188613ca8565b613fd76020830187613ca8565b613fe46040830186612b52565b613ff16060830185612b52565b81810360808301526140038184613f7c565b90509695505050505050565b60008151905061401e81612ba8565b92915050565b60006020828403121561403a57614039612a74565b5b60006140488482850161400f565b91505092915050565b600060a0820190506140666000830188613ca8565b6140736020830187613ca8565b81810360408301526140858186613387565b905081810360608301526140998185613387565b905081810360808301526140ad8184613f7c565b9050969550505050505056fea264697066735822122097401ed1b9a3b967134e83dbf417c38ceeb3e3855615d30f27ed6596466d8cc964736f6c63430008180033",
  "devdoc": {
    "errors": {
      "AccessControlBadConfirmation()": [
        {
          "details": "The caller of a function is not the expected one. NOTE: Don't confuse with {AccessControlUnauthorizedAccount}."
        }
      ],
      "AccessControlUnauthorizedAccount(address,bytes32)": [
        {
          "details": "The `account` is missing a role."
        }
      ],
      "ERC1155InsufficientBalance(address,uint256,uint256,uint256)": [
        {
          "details": "Indicates an error related to the current `balance` of a `sender`. Used in transfers.",
          "params": {
            "balance": "Current balance for the interacting account.",
            "needed": "Minimum amount required to perform a transfer.",
            "sender": "Address whose tokens are being transferred.",
            "tokenId": "Identifier number of a token."
          }
        }
      ],
      "ERC1155InvalidApprover(address)": [
        {
          "details": "Indicates a failure with the `approver` of a token to be approved. Used in approvals.",
          "params": {
            "approver": "Address initiating an approval operation."
          }
        }
      ],
      "ERC1155InvalidArrayLength(uint256,uint256)": [
        {
          "details": "Indicates an array length mismatch between ids and values in a safeBatchTransferFrom operation. Used in batch transfers.",
          "params": {
            "idsLength": "Length of the array of token identifiers",
            "valuesLength": "Length of the array of token amounts"
          }
        }
      ],
      "ERC1155InvalidOperator(address)": [
        {
          "details": "Indicates a failure with the `operator` to be approved. Used in approvals.",
          "params": {
            "operator": "Address that may be allowed to operate on tokens without being their owner."
          }
        }
      ],
      "ERC1155InvalidReceiver(address)": [
        {
          "details": "Indicates a failure with the token `receiver`. Used in transfers.",
          "params": {
            "receiver": "Address to which tokens are being transferred."
          }
        }
      ],
      "ERC1155InvalidSender(address)": [
        {
          "details": "Indicates a failure with the token `sender`. Used in transfers.",
          "params": {
            "sender": "Address whose tokens are being transferred."
          }
        }
      ],
      "ERC1155MissingApprovalForAll(address,address)": [
        {
          "details": "Indicates a failure with the `operator`s approval. Used in transfers.",
          "params": {
            "operator": "Address that may be allowed to operate on tokens without being their owner.",
            "owner": "Address of the current owner of a token."
          }
        }
      ],
      "InvalidInitialization()": [
        {
          "details": "The contract is already initialized."
        }
      ],
      "NotInitializing()": [
        {
          "details": "The contract is not initializing."
        }
      ]
    },
    "events": {
      "ApprovalForAll(address,address,bool)": {
        "details": "Emitted when `account` grants or revokes permission to `operator` to transfer their tokens, according to `approved`."
      },
      "Initialized(uint64)": {
        "details": "Triggered when the contract has been initialized or reinitialized."
      },
      "RoleAdminChanged(bytes32,bytes32,bytes32)": {
        "details": "Emitted when `newAdminRole` is set as ``role``'s admin role, replacing `previousAdminRole` `DEFAULT_ADMIN_ROLE` is the starting admin for all roles, despite {RoleAdminChanged} not being emitted signaling this."
      },
      "RoleGranted(bytes32,address,address)": {
        "details": "Emitted when `account` is granted `role`. `sender` is the account that originated the contract call, an admin role bearer except when using {AccessControl-_setupRole}."
      },
      "RoleRevoked(bytes32,address,address)": {
        "details": "Emitted when `account` is revoked `role`. `sender` is the account that originated the contract call:   - if using `revokeRole`, it is the admin role bearer   - if using `renounceRole`, it is the role bearer (i.e. `account`)"
      },
      "TransferBatch(address,address,address,uint256[],uint256[])": {
        "details": "Equivalent to multiple {TransferSingle} events, where `operator`, `from` and `to` are the same for all transfers."
      },
      "TransferSingle(address,address,address,uint256,uint256)": {
        "details": "Emitted when `value` amount of tokens of type `id` are transferred from `from` to `to` by `operator`."
      },
      "URI(string,uint256)": {
        "details": "Emitted when the URI for token type `id` changes to `value`, if it is a non-programmatic URI. If an {URI} event was emitted for `id`, the standard https://eips.ethereum.org/EIPS/eip-1155#metadata-extensions[guarantees] that `value` will equal the value returned by {IERC1155MetadataURI-uri}."
      }
    },
    "kind": "dev",
    "methods": {
      "balanceOf(address,uint256)": {
        "details": "See {IERC1155-balanceOf}."
      },
      "balanceOfBatch(address[],uint256[])": {
        "details": "See {IERC1155-balanceOfBatch}. Requirements: - `accounts` and `ids` must have the same length."
      },
      "getRoleAdmin(bytes32)": {
        "details": "Returns the admin role that controls `role`. See {grantRole} and {revokeRole}. To change a role's admin, use {_setRoleAdmin}."
      },
      "grantRole(bytes32,address)": {
        "details": "Grants `role` to `account`. If `account` had not been already granted `role`, emits a {RoleGranted} event. Requirements: - the caller must have ``role``'s admin role. May emit a {RoleGranted} event."
      },
      "hasRole(bytes32,address)": {
        "details": "Returns `true` if `account` has been granted `role`."
      },
      "isApprovedForAll(address,address)": {
        "details": "See {IERC1155-isApprovedForAll}."
      },
      "renounceRole(bytes32,address)": {
        "details": "Revokes `role` from the calling account. Roles are often managed via {grantRole} and {revokeRole}: this function's purpose is to provide a mechanism for accounts to lose their privileges if they are compromised (such as when a trusted device is misplaced). If the calling account had been revoked `role`, emits a {RoleRevoked} event. Requirements: - the caller must be `callerConfirmation`. May emit a {RoleRevoked} event."
      },
      "revokeRole(bytes32,address)": {
        "details": "Revokes `role` from `account`. If `account` had been granted `role`, emits a {RoleRevoked} event. Requirements: - the caller must have ``role``'s admin role. May emit a {RoleRevoked} event."
      },
      "safeBatchTransferFrom(address,address,uint256[],uint256[],bytes)": {
        "details": "See {IERC1155-safeBatchTransferFrom}."
      },
      "safeTransferFrom(address,address,uint256,uint256,bytes)": {
        "details": "See {IERC1155-safeTransferFrom}."
      },
      "setApprovalForAll(address,bool)": {
        "details": "See {IERC1155-setApprovalForAll}."
      }
    },
    "version": 1
  },
  "userdoc": {
    "kind": "user",
    "methods": {},
    "version": 1
  },
  "storageLayout": {
    "storage": [
      {
        "astId": 4066,
        "contract": "contracts/ERC1155PandaTraits.sol:ERC1155PandaTraits",
        "label": "owner",
        "offset": 0,
        "slot": "0",
        "type": "t_address_payable"
      },
      {
        "astId": 4073,
        "contract": "contracts/ERC1155PandaTraits.sol:ERC1155PandaTraits",
        "label": "baseTokenURI",
        "offset": 0,
        "slot": "1",
        "type": "t_string_storage"
      },
      {
        "astId": 4077,
        "contract": "contracts/ERC1155PandaTraits.sol:ERC1155PandaTraits",
        "label": "isCustomMetadata",
        "offset": 0,
        "slot": "2",
        "type": "t_mapping(t_uint256,t_bool)"
      },
      {
        "astId": 4081,
        "contract": "contracts/ERC1155PandaTraits.sol:ERC1155PandaTraits",
        "label": "customMetadata",
        "offset": 0,
        "slot": "3",
        "type": "t_mapping(t_uint256,t_string_storage)"
      }
    ],
    "types": {
      "t_address_payable": {
        "encoding": "inplace",
        "label": "address payable",
        "numberOfBytes": "20"
      },
      "t_bool": {
        "encoding": "inplace",
        "label": "bool",
        "numberOfBytes": "1"
      },
      "t_mapping(t_uint256,t_bool)": {
        "encoding": "mapping",
        "key": "t_uint256",
        "label": "mapping(uint256 => bool)",
        "numberOfBytes": "32",
        "value": "t_bool"
      },
      "t_mapping(t_uint256,t_string_storage)": {
        "encoding": "mapping",
        "key": "t_uint256",
        "label": "mapping(uint256 => string)",
        "numberOfBytes": "32",
        "value": "t_string_storage"
      },
      "t_string_storage": {
        "encoding": "bytes",
        "label": "string",
        "numberOfBytes": "32"
      },
      "t_uint256": {
        "encoding": "inplace",
        "label": "uint256",
        "numberOfBytes": "32"
      }
    }
  }
}